{
  "_format": "hh-sol-artifact-1",
  "contractName": "ArGram",
  "sourceName": "contracts/NFTContract.sol",
  "abi": [
    {
      "inputs": [],
      "stateMutability": "nonpayable",
      "type": "constructor"
    },
    {
      "anonymous": false,
      "inputs": [
        {
          "indexed": true,
          "internalType": "address",
          "name": "owner",
          "type": "address"
        },
        {
          "indexed": true,
          "internalType": "address",
          "name": "approved",
          "type": "address"
        },
        {
          "indexed": true,
          "internalType": "uint256",
          "name": "tokenId",
          "type": "uint256"
        }
      ],
      "name": "Approval",
      "type": "event"
    },
    {
      "anonymous": false,
      "inputs": [
        {
          "indexed": true,
          "internalType": "address",
          "name": "owner",
          "type": "address"
        },
        {
          "indexed": true,
          "internalType": "address",
          "name": "operator",
          "type": "address"
        },
        {
          "indexed": false,
          "internalType": "bool",
          "name": "approved",
          "type": "bool"
        }
      ],
      "name": "ApprovalForAll",
      "type": "event"
    },
    {
      "anonymous": false,
      "inputs": [
        {
          "indexed": true,
          "internalType": "address",
          "name": "previousOwner",
          "type": "address"
        },
        {
          "indexed": true,
          "internalType": "address",
          "name": "newOwner",
          "type": "address"
        }
      ],
      "name": "OwnershipTransferred",
      "type": "event"
    },
    {
      "anonymous": false,
      "inputs": [
        {
          "indexed": true,
          "internalType": "address",
          "name": "from",
          "type": "address"
        },
        {
          "indexed": true,
          "internalType": "address",
          "name": "to",
          "type": "address"
        },
        {
          "indexed": true,
          "internalType": "uint256",
          "name": "tokenId",
          "type": "uint256"
        }
      ],
      "name": "Transfer",
      "type": "event"
    },
    {
      "inputs": [
        {
          "internalType": "address",
          "name": "to",
          "type": "address"
        },
        {
          "internalType": "uint256",
          "name": "tokenId",
          "type": "uint256"
        }
      ],
      "name": "approve",
      "outputs": [],
      "stateMutability": "nonpayable",
      "type": "function"
    },
    {
      "inputs": [
        {
          "internalType": "address",
          "name": "owner",
          "type": "address"
        }
      ],
      "name": "balanceOf",
      "outputs": [
        {
          "internalType": "uint256",
          "name": "",
          "type": "uint256"
        }
      ],
      "stateMutability": "view",
      "type": "function"
    },
    {
      "inputs": [
        {
          "internalType": "uint256",
          "name": "tokenId",
          "type": "uint256"
        }
      ],
      "name": "getApproved",
      "outputs": [
        {
          "internalType": "address",
          "name": "",
          "type": "address"
        }
      ],
      "stateMutability": "view",
      "type": "function"
    },
    {
      "inputs": [
        {
          "internalType": "address",
          "name": "owner",
          "type": "address"
        },
        {
          "internalType": "address",
          "name": "operator",
          "type": "address"
        }
      ],
      "name": "isApprovedForAll",
      "outputs": [
        {
          "internalType": "bool",
          "name": "",
          "type": "bool"
        }
      ],
      "stateMutability": "view",
      "type": "function"
    },
    {
      "inputs": [
        {
          "internalType": "address",
          "name": "recipient",
          "type": "address"
        },
        {
          "internalType": "string",
          "name": "_tokenURI",
          "type": "string"
        }
      ],
      "name": "mintNFT",
      "outputs": [
        {
          "internalType": "uint256",
          "name": "",
          "type": "uint256"
        }
      ],
      "stateMutability": "nonpayable",
      "type": "function"
    },
    {
      "inputs": [],
      "name": "name",
      "outputs": [
        {
          "internalType": "string",
          "name": "",
          "type": "string"
        }
      ],
      "stateMutability": "view",
      "type": "function"
    },
    {
      "inputs": [],
      "name": "owner",
      "outputs": [
        {
          "internalType": "address",
          "name": "",
          "type": "address"
        }
      ],
      "stateMutability": "view",
      "type": "function"
    },
    {
      "inputs": [
        {
          "internalType": "uint256",
          "name": "tokenId",
          "type": "uint256"
        }
      ],
      "name": "ownerOf",
      "outputs": [
        {
          "internalType": "address",
          "name": "",
          "type": "address"
        }
      ],
      "stateMutability": "view",
      "type": "function"
    },
    {
      "inputs": [],
      "name": "renounceOwnership",
      "outputs": [],
      "stateMutability": "nonpayable",
      "type": "function"
    },
    {
      "inputs": [
        {
          "internalType": "address",
          "name": "from",
          "type": "address"
        },
        {
          "internalType": "address",
          "name": "to",
          "type": "address"
        },
        {
          "internalType": "uint256",
          "name": "tokenId",
          "type": "uint256"
        }
      ],
      "name": "safeTransferFrom",
      "outputs": [],
      "stateMutability": "nonpayable",
      "type": "function"
    },
    {
      "inputs": [
        {
          "internalType": "address",
          "name": "from",
          "type": "address"
        },
        {
          "internalType": "address",
          "name": "to",
          "type": "address"
        },
        {
          "internalType": "uint256",
          "name": "tokenId",
          "type": "uint256"
        },
        {
          "internalType": "bytes",
          "name": "data",
          "type": "bytes"
        }
      ],
      "name": "safeTransferFrom",
      "outputs": [],
      "stateMutability": "nonpayable",
      "type": "function"
    },
    {
      "inputs": [
        {
          "internalType": "address",
          "name": "operator",
          "type": "address"
        },
        {
          "internalType": "bool",
          "name": "approved",
          "type": "bool"
        }
      ],
      "name": "setApprovalForAll",
      "outputs": [],
      "stateMutability": "nonpayable",
      "type": "function"
    },
    {
      "inputs": [
        {
          "internalType": "string",
          "name": "baseUri",
          "type": "string"
        }
      ],
      "name": "setBaseURI",
      "outputs": [],
      "stateMutability": "nonpayable",
      "type": "function"
    },
    {
      "inputs": [
        {
          "internalType": "bytes4",
          "name": "interfaceId",
          "type": "bytes4"
        }
      ],
      "name": "supportsInterface",
      "outputs": [
        {
          "internalType": "bool",
          "name": "",
          "type": "bool"
        }
      ],
      "stateMutability": "view",
      "type": "function"
    },
    {
      "inputs": [],
      "name": "symbol",
      "outputs": [
        {
          "internalType": "string",
          "name": "",
          "type": "string"
        }
      ],
      "stateMutability": "view",
      "type": "function"
    },
    {
      "inputs": [
        {
          "internalType": "uint256",
          "name": "tokenId",
          "type": "uint256"
        }
      ],
      "name": "tokenURI",
      "outputs": [
        {
          "internalType": "string",
          "name": "",
          "type": "string"
        }
      ],
      "stateMutability": "view",
      "type": "function"
    },
    {
      "inputs": [
        {
          "internalType": "address",
          "name": "from",
          "type": "address"
        },
        {
          "internalType": "address",
          "name": "to",
          "type": "address"
        },
        {
          "internalType": "uint256",
          "name": "tokenId",
          "type": "uint256"
        }
      ],
      "name": "transferFrom",
      "outputs": [],
      "stateMutability": "nonpayable",
      "type": "function"
    },
    {
      "inputs": [
        {
          "internalType": "address",
          "name": "newOwner",
          "type": "address"
        }
      ],
      "name": "transferOwnership",
      "outputs": [],
      "stateMutability": "nonpayable",
      "type": "function"
    }
  ],
  "bytecode": "0x60806040523480156200001157600080fd5b506040518060400160405280600681526020017f41524752414d00000000000000000000000000000000000000000000000000008152506040518060400160405280600681526020017f41524752414d0000000000000000000000000000000000000000000000000000815250816000908051906020019062000096929190620001a6565b508060019080519060200190620000af929190620001a6565b505050620000d2620000c6620000d860201b60201c565b620000e060201b60201c565b620002bb565b600033905090565b6000600660009054906101000a900473ffffffffffffffffffffffffffffffffffffffff16905081600660006101000a81548173ffffffffffffffffffffffffffffffffffffffff021916908373ffffffffffffffffffffffffffffffffffffffff1602179055508173ffffffffffffffffffffffffffffffffffffffff168173ffffffffffffffffffffffffffffffffffffffff167f8be0079c531659141344cd1fd0a4f28419497f9722a3daafe3b4186f6b6457e060405160405180910390a35050565b828054620001b49062000285565b90600052602060002090601f016020900481019282620001d8576000855562000224565b82601f10620001f357805160ff191683800117855562000224565b8280016001018555821562000224579182015b828111156200022357825182559160200191906001019062000206565b5b50905062000233919062000237565b5090565b5b808211156200025257600081600090555060010162000238565b5090565b7f4e487b7100000000000000000000000000000000000000000000000000000000600052602260045260246000fd5b600060028204905060018216806200029e57607f821691505b60208210811415620002b557620002b462000256565b5b50919050565b612d2c80620002cb6000396000f3fe608060405234801561001057600080fd5b50600436106101165760003560e01c8063715018a6116100a2578063b88d4fde11610071578063b88d4fde146102cb578063c87b56dd146102e7578063e985e9c514610317578063eacabe1414610347578063f2fde38b1461037757610116565b8063715018a6146102695780638da5cb5b1461027357806395d89b4114610291578063a22cb465146102af57610116565b806323b872dd116100e957806323b872dd146101b557806342842e0e146101d157806355f804b3146101ed5780636352211e1461020957806370a082311461023957610116565b806301ffc9a71461011b57806306fdde031461014b578063081812fc14610169578063095ea7b314610199575b600080fd5b61013560048036038101906101309190611cb6565b610393565b6040516101429190611cfe565b60405180910390f35b610153610475565b6040516101609190611db2565b60405180910390f35b610183600480360381019061017e9190611e0a565b610507565b6040516101909190611e78565b60405180910390f35b6101b360048036038101906101ae9190611ebf565b61054d565b005b6101cf60048036038101906101ca9190611eff565b610665565b005b6101eb60048036038101906101e69190611eff565b6106c5565b005b61020760048036038101906102029190612087565b6106e5565b005b610223600480360381019061021e9190611e0a565b610707565b6040516102309190611e78565b60405180910390f35b610253600480360381019061024e91906120d0565b61078e565b604051610260919061210c565b60405180910390f35b610271610846565b005b61027b61085a565b6040516102889190611e78565b60405180910390f35b610299610884565b6040516102a69190611db2565b60405180910390f35b6102c960048036038101906102c49190612153565b610916565b005b6102e560048036038101906102e09190612234565b61092c565b005b61030160048036038101906102fc9190611e0a565b61098e565b60405161030e9190611db2565b60405180910390f35b610331600480360381019061032c91906122b7565b610b01565b60405161033e9190611cfe565b60405180910390f35b610361600480360381019061035c91906122f7565b610b95565b60405161036e919061210c565b60405180910390f35b610391600480360381019061038c91906120d0565b610bd5565b005b60007f80ac58cd000000000000000000000000000000000000000000000000000000007bffffffffffffffffffffffffffffffffffffffffffffffffffffffff1916827bffffffffffffffffffffffffffffffffffffffffffffffffffffffff1916148061045e57507f5b5e139f000000000000000000000000000000000000000000000000000000007bffffffffffffffffffffffffffffffffffffffffffffffffffffffff1916827bffffffffffffffffffffffffffffffffffffffffffffffffffffffff1916145b8061046e575061046d82610c59565b5b9050919050565b60606000805461048490612382565b80601f01602080910402602001604051908101604052809291908181526020018280546104b090612382565b80156104fd5780601f106104d2576101008083540402835291602001916104fd565b820191906000526020600020905b8154815290600101906020018083116104e057829003601f168201915b5050505050905090565b600061051282610cc3565b6004600083815260200190815260200160002060009054906101000a900473ffffffffffffffffffffffffffffffffffffffff169050919050565b600061055882610707565b90508073ffffffffffffffffffffffffffffffffffffffff168373ffffffffffffffffffffffffffffffffffffffff1614156105c9576040517f08c379a00000000000000000000000000000000000000000000000000000000081526004016105c090612426565b60405180910390fd5b8073ffffffffffffffffffffffffffffffffffffffff166105e8610d0e565b73ffffffffffffffffffffffffffffffffffffffff161480610617575061061681610611610d0e565b610b01565b5b610656576040517f08c379a000000000000000000000000000000000000000000000000000000000815260040161064d906124b8565b60405180910390fd5b6106608383610d16565b505050565b610676610670610d0e565b82610dcf565b6106b5576040517f08c379a00000000000000000000000000000000000000000000000000000000081526004016106ac9061254a565b60405180910390fd5b6106c0838383610e64565b505050565b6106e08383836040518060200160405280600081525061092c565b505050565b6106ed61115e565b8060099080519060200190610703929190611ba7565b5050565b600080610713836111dc565b9050600073ffffffffffffffffffffffffffffffffffffffff168173ffffffffffffffffffffffffffffffffffffffff161415610785576040517f08c379a000000000000000000000000000000000000000000000000000000000815260040161077c906125b6565b60405180910390fd5b80915050919050565b60008073ffffffffffffffffffffffffffffffffffffffff168273ffffffffffffffffffffffffffffffffffffffff1614156107ff576040517f08c379a00000000000000000000000000000000000000000000000000000000081526004016107f690612648565b60405180910390fd5b600360008373ffffffffffffffffffffffffffffffffffffffff1673ffffffffffffffffffffffffffffffffffffffff168152602001908152602001600020549050919050565b61084e61115e565b6108586000611219565b565b6000600660009054906101000a900473ffffffffffffffffffffffffffffffffffffffff16905090565b60606001805461089390612382565b80601f01602080910402602001604051908101604052809291908181526020018280546108bf90612382565b801561090c5780601f106108e15761010080835404028352916020019161090c565b820191906000526020600020905b8154815290600101906020018083116108ef57829003601f168201915b5050505050905090565b610928610921610d0e565b83836112df565b5050565b61093d610937610d0e565b83610dcf565b61097c576040517f08c379a00000000000000000000000000000000000000000000000000000000081526004016109739061254a565b60405180910390fd5b6109888484848461144c565b50505050565b6060610999826114a8565b6109d8576040517f08c379a00000000000000000000000000000000000000000000000000000000081526004016109cf906126da565b60405180910390fd5b60006008600084815260200190815260200160002080546109f890612382565b80601f0160208091040260200160405190810160405280929190818152602001828054610a2490612382565b8015610a715780601f10610a4657610100808354040283529160200191610a71565b820191906000526020600020905b815481529060010190602001808311610a5457829003601f168201915b505050505090506000610a826114e9565b9050600081511415610a98578192505050610afc565b600082511115610acd578082604051602001610ab5929190612736565b60405160208183030381529060405292505050610afc565b80610ad785611500565b604051602001610ae8929190612736565b604051602081830303815290604052925050505b919050565b6000600560008473ffffffffffffffffffffffffffffffffffffffff1673ffffffffffffffffffffffffffffffffffffffff16815260200190815260200160002060008373ffffffffffffffffffffffffffffffffffffffff1673ffffffffffffffffffffffffffffffffffffffff16815260200190815260200160002060009054906101000a900460ff16905092915050565b6000610b9f61115e565b610ba960076115d8565b6000610bb560076115ee565b9050610bc184826115fc565b610bcb818461181a565b8091505092915050565b610bdd61115e565b600073ffffffffffffffffffffffffffffffffffffffff168173ffffffffffffffffffffffffffffffffffffffff161415610c4d576040517f08c379a0000000000000000000000000000000000000000000000000000000008152600401610c44906127cc565b60405180910390fd5b610c5681611219565b50565b60007f01ffc9a7000000000000000000000000000000000000000000000000000000007bffffffffffffffffffffffffffffffffffffffffffffffffffffffff1916827bffffffffffffffffffffffffffffffffffffffffffffffffffffffff1916149050919050565b610ccc816114a8565b610d0b576040517f08c379a0000000000000000000000000000000000000000000000000000000008152600401610d02906125b6565b60405180910390fd5b50565b600033905090565b816004600083815260200190815260200160002060006101000a81548173ffffffffffffffffffffffffffffffffffffffff021916908373ffffffffffffffffffffffffffffffffffffffff160217905550808273ffffffffffffffffffffffffffffffffffffffff16610d8983610707565b73ffffffffffffffffffffffffffffffffffffffff167f8c5be1e5ebec7d5bd14f71427d1e84f3dd0314c0f7b2291e5b200ac8c7c3b92560405160405180910390a45050565b600080610ddb83610707565b90508073ffffffffffffffffffffffffffffffffffffffff168473ffffffffffffffffffffffffffffffffffffffff161480610e1d5750610e1c8185610b01565b5b80610e5b57508373ffffffffffffffffffffffffffffffffffffffff16610e4384610507565b73ffffffffffffffffffffffffffffffffffffffff16145b91505092915050565b8273ffffffffffffffffffffffffffffffffffffffff16610e8482610707565b73ffffffffffffffffffffffffffffffffffffffff1614610eda576040517f08c379a0000000000000000000000000000000000000000000000000000000008152600401610ed19061285e565b60405180910390fd5b600073ffffffffffffffffffffffffffffffffffffffff168273ffffffffffffffffffffffffffffffffffffffff161415610f4a576040517f08c379a0000000000000000000000000000000000000000000000000000000008152600401610f41906128f0565b60405180910390fd5b610f57838383600161188e565b8273ffffffffffffffffffffffffffffffffffffffff16610f7782610707565b73ffffffffffffffffffffffffffffffffffffffff1614610fcd576040517f08c379a0000000000000000000000000000000000000000000000000000000008152600401610fc49061285e565b60405180910390fd5b6004600082815260200190815260200160002060006101000a81549073ffffffffffffffffffffffffffffffffffffffff02191690556001600360008573ffffffffffffffffffffffffffffffffffffffff1673ffffffffffffffffffffffffffffffffffffffff168152602001908152602001600020600082825403925050819055506001600360008473ffffffffffffffffffffffffffffffffffffffff1673ffffffffffffffffffffffffffffffffffffffff16815260200190815260200160002060008282540192505081905550816002600083815260200190815260200160002060006101000a81548173ffffffffffffffffffffffffffffffffffffffff021916908373ffffffffffffffffffffffffffffffffffffffff160217905550808273ffffffffffffffffffffffffffffffffffffffff168473ffffffffffffffffffffffffffffffffffffffff167fddf252ad1be2c89b69c2b068fc378daa952ba7f163c4a11628f55a4df523b3ef60405160405180910390a46111598383836001611894565b505050565b611166610d0e565b73ffffffffffffffffffffffffffffffffffffffff1661118461085a565b73ffffffffffffffffffffffffffffffffffffffff16146111da576040517f08c379a00000000000000000000000000000000000000000000000000000000081526004016111d19061295c565b60405180910390fd5b565b60006002600083815260200190815260200160002060009054906101000a900473ffffffffffffffffffffffffffffffffffffffff169050919050565b6000600660009054906101000a900473ffffffffffffffffffffffffffffffffffffffff16905081600660006101000a81548173ffffffffffffffffffffffffffffffffffffffff021916908373ffffffffffffffffffffffffffffffffffffffff1602179055508173ffffffffffffffffffffffffffffffffffffffff168173ffffffffffffffffffffffffffffffffffffffff167f8be0079c531659141344cd1fd0a4f28419497f9722a3daafe3b4186f6b6457e060405160405180910390a35050565b8173ffffffffffffffffffffffffffffffffffffffff168373ffffffffffffffffffffffffffffffffffffffff16141561134e576040517f08c379a0000000000000000000000000000000000000000000000000000000008152600401611345906129c8565b60405180910390fd5b80600560008573ffffffffffffffffffffffffffffffffffffffff1673ffffffffffffffffffffffffffffffffffffffff16815260200190815260200160002060008473ffffffffffffffffffffffffffffffffffffffff1673ffffffffffffffffffffffffffffffffffffffff16815260200190815260200160002060006101000a81548160ff0219169083151502179055508173ffffffffffffffffffffffffffffffffffffffff168373ffffffffffffffffffffffffffffffffffffffff167f17307eab39ab6107e8899845ad3d59bd9653f200f220920489ca2b5937696c318360405161143f9190611cfe565b60405180910390a3505050565b611457848484610e64565b6114638484848461189a565b6114a2576040517f08c379a000000000000000000000000000000000000000000000000000000000815260040161149990612a5a565b60405180910390fd5b50505050565b60008073ffffffffffffffffffffffffffffffffffffffff166114ca836111dc565b73ffffffffffffffffffffffffffffffffffffffff1614159050919050565b606060405180602001604052806000815250905090565b60606000600161150f84611a31565b01905060008167ffffffffffffffff81111561152e5761152d611f5c565b5b6040519080825280601f01601f1916602001820160405280156115605781602001600182028036833780820191505090505b509050600082602001820190505b6001156115cd578080600190039150507f3031323334353637383961626364656600000000000000000000000000000000600a86061a8153600a85816115b7576115b6612a7a565b5b04945060008514156115c8576115cd565b61156e565b819350505050919050565b6001816000016000828254019250508190555050565b600081600001549050919050565b600073ffffffffffffffffffffffffffffffffffffffff168273ffffffffffffffffffffffffffffffffffffffff16141561166c576040517f08c379a000000000000000000000000000000000000000000000000000000000815260040161166390612af5565b60405180910390fd5b611675816114a8565b156116b5576040517f08c379a00000000000000000000000000000000000000000000000000000000081526004016116ac90612b61565b60405180910390fd5b6116c360008383600161188e565b6116cc816114a8565b1561170c576040517f08c379a000000000000000000000000000000000000000000000000000000000815260040161170390612b61565b60405180910390fd5b6001600360008473ffffffffffffffffffffffffffffffffffffffff1673ffffffffffffffffffffffffffffffffffffffff16815260200190815260200160002060008282540192505081905550816002600083815260200190815260200160002060006101000a81548173ffffffffffffffffffffffffffffffffffffffff021916908373ffffffffffffffffffffffffffffffffffffffff160217905550808273ffffffffffffffffffffffffffffffffffffffff16600073ffffffffffffffffffffffffffffffffffffffff167fddf252ad1be2c89b69c2b068fc378daa952ba7f163c4a11628f55a4df523b3ef60405160405180910390a4611816600083836001611894565b5050565b611823826114a8565b611862576040517f08c379a000000000000000000000000000000000000000000000000000000000815260040161185990612bf3565b60405180910390fd5b80600860008481526020019081526020016000209080519060200190611889929190611ba7565b505050565b50505050565b50505050565b60006118bb8473ffffffffffffffffffffffffffffffffffffffff16611b84565b15611a24578373ffffffffffffffffffffffffffffffffffffffff1663150b7a026118e4610d0e565b8786866040518563ffffffff1660e01b81526004016119069493929190612c68565b602060405180830381600087803b15801561192057600080fd5b505af192505050801561195157506040513d601f19601f8201168201806040525081019061194e9190612cc9565b60015b6119d4573d8060008114611981576040519150601f19603f3d011682016040523d82523d6000602084013e611986565b606091505b506000815114156119cc576040517f08c379a00000000000000000000000000000000000000000000000000000000081526004016119c390612a5a565b60405180910390fd5b805181602001fd5b63150b7a0260e01b7bffffffffffffffffffffffffffffffffffffffffffffffffffffffff1916817bffffffffffffffffffffffffffffffffffffffffffffffffffffffff191614915050611a29565b600190505b949350505050565b600080600090507a184f03e93ff9f4daa797ed6e38ed64bf6a1f0100000000000000008310611a8f577a184f03e93ff9f4daa797ed6e38ed64bf6a1f0100000000000000008381611a8557611a84612a7a565b5b0492506040810190505b6d04ee2d6d415b85acef81000000008310611acc576d04ee2d6d415b85acef81000000008381611ac257611ac1612a7a565b5b0492506020810190505b662386f26fc100008310611afb57662386f26fc100008381611af157611af0612a7a565b5b0492506010810190505b6305f5e1008310611b24576305f5e1008381611b1a57611b19612a7a565b5b0492506008810190505b6127108310611b49576127108381611b3f57611b3e612a7a565b5b0492506004810190505b60648310611b6c5760648381611b6257611b61612a7a565b5b0492506002810190505b600a8310611b7b576001810190505b80915050919050565b6000808273ffffffffffffffffffffffffffffffffffffffff163b119050919050565b828054611bb390612382565b90600052602060002090601f016020900481019282611bd55760008555611c1c565b82601f10611bee57805160ff1916838001178555611c1c565b82800160010185558215611c1c579182015b82811115611c1b578251825591602001919060010190611c00565b5b509050611c299190611c2d565b5090565b5b80821115611c46576000816000905550600101611c2e565b5090565b6000604051905090565b600080fd5b600080fd5b60007fffffffff0000000000000000000000000000000000000000000000000000000082169050919050565b611c9381611c5e565b8114611c9e57600080fd5b50565b600081359050611cb081611c8a565b92915050565b600060208284031215611ccc57611ccb611c54565b5b6000611cda84828501611ca1565b91505092915050565b60008115159050919050565b611cf881611ce3565b82525050565b6000602082019050611d136000830184611cef565b92915050565b600081519050919050565b600082825260208201905092915050565b60005b83811015611d53578082015181840152602081019050611d38565b83811115611d62576000848401525b50505050565b6000601f19601f8301169050919050565b6000611d8482611d19565b611d8e8185611d24565b9350611d9e818560208601611d35565b611da781611d68565b840191505092915050565b60006020820190508181036000830152611dcc8184611d79565b905092915050565b6000819050919050565b611de781611dd4565b8114611df257600080fd5b50565b600081359050611e0481611dde565b92915050565b600060208284031215611e2057611e1f611c54565b5b6000611e2e84828501611df5565b91505092915050565b600073ffffffffffffffffffffffffffffffffffffffff82169050919050565b6000611e6282611e37565b9050919050565b611e7281611e57565b82525050565b6000602082019050611e8d6000830184611e69565b92915050565b611e9c81611e57565b8114611ea757600080fd5b50565b600081359050611eb981611e93565b92915050565b60008060408385031215611ed657611ed5611c54565b5b6000611ee485828601611eaa565b9250506020611ef585828601611df5565b9150509250929050565b600080600060608486031215611f1857611f17611c54565b5b6000611f2686828701611eaa565b9350506020611f3786828701611eaa565b9250506040611f4886828701611df5565b9150509250925092565b600080fd5b600080fd5b7f4e487b7100000000000000000000000000000000000000000000000000000000600052604160045260246000fd5b611f9482611d68565b810181811067ffffffffffffffff82111715611fb357611fb2611f5c565b5b80604052505050565b6000611fc6611c4a565b9050611fd28282611f8b565b919050565b600067ffffffffffffffff821115611ff257611ff1611f5c565b5b611ffb82611d68565b9050602081019050919050565b82818337600083830152505050565b600061202a61202584611fd7565b611fbc565b90508281526020810184848401111561204657612045611f57565b5b612051848285612008565b509392505050565b600082601f83011261206e5761206d611f52565b5b813561207e848260208601612017565b91505092915050565b60006020828403121561209d5761209c611c54565b5b600082013567ffffffffffffffff8111156120bb576120ba611c59565b5b6120c784828501612059565b91505092915050565b6000602082840312156120e6576120e5611c54565b5b60006120f484828501611eaa565b91505092915050565b61210681611dd4565b82525050565b600060208201905061212160008301846120fd565b92915050565b61213081611ce3565b811461213b57600080fd5b50565b60008135905061214d81612127565b92915050565b6000806040838503121561216a57612169611c54565b5b600061217885828601611eaa565b92505060206121898582860161213e565b9150509250929050565b600067ffffffffffffffff8211156121ae576121ad611f5c565b5b6121b782611d68565b9050602081019050919050565b60006121d76121d284612193565b611fbc565b9050828152602081018484840111156121f3576121f2611f57565b5b6121fe848285612008565b509392505050565b600082601f83011261221b5761221a611f52565b5b813561222b8482602086016121c4565b91505092915050565b6000806000806080858703121561224e5761224d611c54565b5b600061225c87828801611eaa565b945050602061226d87828801611eaa565b935050604061227e87828801611df5565b925050606085013567ffffffffffffffff81111561229f5761229e611c59565b5b6122ab87828801612206565b91505092959194509250565b600080604083850312156122ce576122cd611c54565b5b60006122dc85828601611eaa565b92505060206122ed85828601611eaa565b9150509250929050565b6000806040838503121561230e5761230d611c54565b5b600061231c85828601611eaa565b925050602083013567ffffffffffffffff81111561233d5761233c611c59565b5b61234985828601612059565b9150509250929050565b7f4e487b7100000000000000000000000000000000000000000000000000000000600052602260045260246000fd5b6000600282049050600182168061239a57607f821691505b602082108114156123ae576123ad612353565b5b50919050565b7f4552433732313a20617070726f76616c20746f2063757272656e74206f776e6560008201527f7200000000000000000000000000000000000000000000000000000000000000602082015250565b6000612410602183611d24565b915061241b826123b4565b604082019050919050565b6000602082019050818103600083015261243f81612403565b9050919050565b7f4552433732313a20617070726f76652063616c6c6572206973206e6f7420746f60008201527f6b656e206f776e6572206f7220617070726f76656420666f7220616c6c000000602082015250565b60006124a2603d83611d24565b91506124ad82612446565b604082019050919050565b600060208201905081810360008301526124d181612495565b9050919050565b7f4552433732313a2063616c6c6572206973206e6f7420746f6b656e206f776e6560008201527f72206f7220617070726f76656400000000000000000000000000000000000000602082015250565b6000612534602d83611d24565b915061253f826124d8565b604082019050919050565b6000602082019050818103600083015261256381612527565b9050919050565b7f4552433732313a20696e76616c696420746f6b656e2049440000000000000000600082015250565b60006125a0601883611d24565b91506125ab8261256a565b602082019050919050565b600060208201905081810360008301526125cf81612593565b9050919050565b7f4552433732313a2061646472657373207a65726f206973206e6f74206120766160008201527f6c6964206f776e65720000000000000000000000000000000000000000000000602082015250565b6000612632602983611d24565b915061263d826125d6565b604082019050919050565b6000602082019050818103600083015261266181612625565b9050919050565b7f4552433732314d657461646174613a2055524920717565727920666f72206e6f60008201527f6e6578697374656e7420746f6b656e0000000000000000000000000000000000602082015250565b60006126c4602f83611d24565b91506126cf82612668565b604082019050919050565b600060208201905081810360008301526126f3816126b7565b9050919050565b600081905092915050565b600061271082611d19565b61271a81856126fa565b935061272a818560208601611d35565b80840191505092915050565b60006127428285612705565b915061274e8284612705565b91508190509392505050565b7f4f776e61626c653a206e6577206f776e657220697320746865207a65726f206160008201527f6464726573730000000000000000000000000000000000000000000000000000602082015250565b60006127b6602683611d24565b91506127c18261275a565b604082019050919050565b600060208201905081810360008301526127e5816127a9565b9050919050565b7f4552433732313a207472616e736665722066726f6d20696e636f72726563742060008201527f6f776e6572000000000000000000000000000000000000000000000000000000602082015250565b6000612848602583611d24565b9150612853826127ec565b604082019050919050565b600060208201905081810360008301526128778161283b565b9050919050565b7f4552433732313a207472616e7366657220746f20746865207a65726f2061646460008201527f7265737300000000000000000000000000000000000000000000000000000000602082015250565b60006128da602483611d24565b91506128e58261287e565b604082019050919050565b60006020820190508181036000830152612909816128cd565b9050919050565b7f4f776e61626c653a2063616c6c6572206973206e6f7420746865206f776e6572600082015250565b6000612946602083611d24565b915061295182612910565b602082019050919050565b6000602082019050818103600083015261297581612939565b9050919050565b7f4552433732313a20617070726f766520746f2063616c6c657200000000000000600082015250565b60006129b2601983611d24565b91506129bd8261297c565b602082019050919050565b600060208201905081810360008301526129e1816129a5565b9050919050565b7f4552433732313a207472616e7366657220746f206e6f6e20455243373231526560008201527f63656976657220696d706c656d656e7465720000000000000000000000000000602082015250565b6000612a44603283611d24565b9150612a4f826129e8565b604082019050919050565b60006020820190508181036000830152612a7381612a37565b9050919050565b7f4e487b7100000000000000000000000000000000000000000000000000000000600052601260045260246000fd5b7f4552433732313a206d696e7420746f20746865207a65726f2061646472657373600082015250565b6000612adf602083611d24565b9150612aea82612aa9565b602082019050919050565b60006020820190508181036000830152612b0e81612ad2565b9050919050565b7f4552433732313a20746f6b656e20616c7265616479206d696e74656400000000600082015250565b6000612b4b601c83611d24565b9150612b5682612b15565b602082019050919050565b60006020820190508181036000830152612b7a81612b3e565b9050919050565b7f4552433732314d6574613a2055524920736574206f66206e6f6e65786973746560008201527f6e7420746f6b656e000000000000000000000000000000000000000000000000602082015250565b6000612bdd602883611d24565b9150612be882612b81565b604082019050919050565b60006020820190508181036000830152612c0c81612bd0565b9050919050565b600081519050919050565b600082825260208201905092915050565b6000612c3a82612c13565b612c448185612c1e565b9350612c54818560208601611d35565b612c5d81611d68565b840191505092915050565b6000608082019050612c7d6000830187611e69565b612c8a6020830186611e69565b612c9760408301856120fd565b8181036060830152612ca98184612c2f565b905095945050505050565b600081519050612cc381611c8a565b92915050565b600060208284031215612cdf57612cde611c54565b5b6000612ced84828501612cb4565b9150509291505056fea26469706673582212205ed52c0e58ce319e6e2bc1420e603d6a96f697f4ddd5bfe40796d93555cc100064736f6c63430008090033",
  "linkReferences": {},
  "deployedLinkReferences": {}
}